{
  "_format": "hh-sol-artifact-1",
  "contractName": "Escrow",
  "sourceName": "contracts/Escrow.sol",
  "abi": [
    {
      "anonymous": false,
      "inputs": [
        {
          "indexed": true,
          "internalType": "uint256",
          "name": "jobId",
          "type": "uint256"
        },
        {
          "indexed": true,
          "internalType": "address",
          "name": "client",
          "type": "address"
        },
        {
          "indexed": true,
          "internalType": "address",
          "name": "freelancer",
          "type": "address"
        },
        {
          "indexed": false,
          "internalType": "uint256",
          "name": "amount",
          "type": "uint256"
        }
      ],
      "name": "JobFunded",
      "type": "event"
    },
    {
      "anonymous": false,
      "inputs": [
        {
          "indexed": true,
          "internalType": "uint256",
          "name": "jobId",
          "type": "uint256"
        }
      ],
      "name": "JobRefunded",
      "type": "event"
    },
    {
      "anonymous": false,
      "inputs": [
        {
          "indexed": true,
          "internalType": "uint256",
          "name": "jobId",
          "type": "uint256"
        }
      ],
      "name": "JobReleased",
      "type": "event"
    },
    {
      "inputs": [
        {
          "internalType": "address",
          "name": "freelancer",
          "type": "address"
        }
      ],
      "name": "fundJob",
      "outputs": [
        {
          "internalType": "uint256",
          "name": "jobId",
          "type": "uint256"
        }
      ],
      "stateMutability": "payable",
      "type": "function"
    },
    {
      "inputs": [],
      "name": "jobCount",
      "outputs": [
        {
          "internalType": "uint256",
          "name": "",
          "type": "uint256"
        }
      ],
      "stateMutability": "view",
      "type": "function"
    },
    {
      "inputs": [
        {
          "internalType": "uint256",
          "name": "",
          "type": "uint256"
        }
      ],
      "name": "jobs",
      "outputs": [
        {
          "internalType": "address",
          "name": "client",
          "type": "address"
        },
        {
          "internalType": "address",
          "name": "freelancer",
          "type": "address"
        },
        {
          "internalType": "uint256",
          "name": "amount",
          "type": "uint256"
        },
        {
          "internalType": "enum Escrow.Status",
          "name": "status",
          "type": "uint8"
        }
      ],
      "stateMutability": "view",
      "type": "function"
    },
    {
      "inputs": [
        {
          "internalType": "uint256",
          "name": "jobId",
          "type": "uint256"
        }
      ],
      "name": "refund",
      "outputs": [],
      "stateMutability": "nonpayable",
      "type": "function"
    },
    {
      "inputs": [
        {
          "internalType": "uint256",
          "name": "jobId",
          "type": "uint256"
        }
      ],
      "name": "release",
      "outputs": [],
      "stateMutability": "nonpayable",
      "type": "function"
    }
  ],
  "bytecode": "0x608060405234801561001057600080fd5b50610dcc806100206000396000f3fe60806040526004361061004a5760003560e01c8063180aedf31461004f578063278ecde11461008f57806337bdc99b146100b85780634c5d8a0f146100e157806352015aa31461010c575b600080fd5b34801561005b57600080fd5b50610076600480360381019061007191906108ff565b61013c565b60405161008694939291906109f3565b60405180910390f35b34801561009b57600080fd5b506100b660048036038101906100b191906108ff565b6101b9565b005b3480156100c457600080fd5b506100df60048036038101906100da91906108ff565b610467565b005b3480156100ed57600080fd5b506100f66106bb565b6040516101039190610a38565b60405180910390f35b61012660048036038101906101219190610a7f565b6106c1565b6040516101339190610a38565b60405180910390f35b60016020528060005260406000206000915090508060000160009054906101000a900473ffffffffffffffffffffffffffffffffffffffff16908060010160009054906101000a900473ffffffffffffffffffffffffffffffffffffffff16908060020154908060030160009054906101000a900460ff16905084565b60006001600083815260200190815260200160002090508060010160009054906101000a900473ffffffffffffffffffffffffffffffffffffffff1673ffffffffffffffffffffffffffffffffffffffff163373ffffffffffffffffffffffffffffffffffffffff16148061027d57508060000160009054906101000a900473ffffffffffffffffffffffffffffffffffffffff1673ffffffffffffffffffffffffffffffffffffffff163373ffffffffffffffffffffffffffffffffffffffff16145b6102bc576040517f08c379a00000000000000000000000000000000000000000000000000000000081526004016102b390610b09565b60405180910390fd5b600060028111156102d0576102cf61097c565b5b8160030160009054906101000a900460ff1660028111156102f4576102f361097c565b5b14610334576040517f08c379a000000000000000000000000000000000000000000000000000000000815260040161032b90610b75565b60405180910390fd5b60028160030160006101000a81548160ff0219169083600281111561035c5761035b61097c565b5b021790555060008160000160009054906101000a900473ffffffffffffffffffffffffffffffffffffffff1673ffffffffffffffffffffffffffffffffffffffff1682600201546040516103af90610bc6565b60006040518083038185875af1925050503d80600081146103ec576040519150601f19603f3d011682016040523d82523d6000602084013e6103f1565b606091505b5050905080610435576040517f08c379a000000000000000000000000000000000000000000000000000000000815260040161042c90610c27565b60405180910390fd5b827f125feb9329fec66f38e904b4bd76509026d4aa18455b61f6f2aaac7042d52f8c60405160405180910390a2505050565b60006001600083815260200190815260200160002090508060000160009054906101000a900473ffffffffffffffffffffffffffffffffffffffff1673ffffffffffffffffffffffffffffffffffffffff163373ffffffffffffffffffffffffffffffffffffffff1614610510576040517f08c379a000000000000000000000000000000000000000000000000000000000815260040161050790610c93565b60405180910390fd5b600060028111156105245761052361097c565b5b8160030160009054906101000a900460ff1660028111156105485761054761097c565b5b14610588576040517f08c379a000000000000000000000000000000000000000000000000000000000815260040161057f90610b75565b60405180910390fd5b60018160030160006101000a81548160ff021916908360028111156105b0576105af61097c565b5b021790555060008160010160009054906101000a900473ffffffffffffffffffffffffffffffffffffffff1673ffffffffffffffffffffffffffffffffffffffff16826002015460405161060390610bc6565b60006040518083038185875af1925050503d8060008114610640576040519150601f19603f3d011682016040523d82523d6000602084013e610645565b606091505b5050905080610689576040517f08c379a000000000000000000000000000000000000000000000000000000000815260040161068090610c27565b60405180910390fd5b827f8dac48a311cb7b57ad6fd8483f454350a387b7ec8701a2af38bb6c824d0cb5cc60405160405180910390a2505050565b60005481565b6000803411610705576040517f08c379a00000000000000000000000000000000000000000000000000000000081526004016106fc90610cff565b60405180910390fd5b600080815461071390610d4e565b919050819055905060405180608001604052803373ffffffffffffffffffffffffffffffffffffffff1681526020018373ffffffffffffffffffffffffffffffffffffffff168152602001348152602001600060028111156107785761077761097c565b5b8152506001600083815260200190815260200160002060008201518160000160006101000a81548173ffffffffffffffffffffffffffffffffffffffff021916908373ffffffffffffffffffffffffffffffffffffffff16021790555060208201518160010160006101000a81548173ffffffffffffffffffffffffffffffffffffffff021916908373ffffffffffffffffffffffffffffffffffffffff1602179055506040820151816002015560608201518160030160006101000a81548160ff021916908360028111156108515761085061097c565b5b02179055509050508173ffffffffffffffffffffffffffffffffffffffff163373ffffffffffffffffffffffffffffffffffffffff16827fbdb056de345bfeadca7c9fd7df6430bdb83c677c8eefbb601dff56f34d3dac52346040516108b79190610a38565b60405180910390a4919050565b600080fd5b6000819050919050565b6108dc816108c9565b81146108e757600080fd5b50565b6000813590506108f9816108d3565b92915050565b600060208284031215610915576109146108c4565b5b6000610923848285016108ea565b91505092915050565b600073ffffffffffffffffffffffffffffffffffffffff82169050919050565b60006109578261092c565b9050919050565b6109678161094c565b82525050565b610976816108c9565b82525050565b7f4e487b7100000000000000000000000000000000000000000000000000000000600052602160045260246000fd5b600381106109bc576109bb61097c565b5b50565b60008190506109cd826109ab565b919050565b60006109dd826109bf565b9050919050565b6109ed816109d2565b82525050565b6000608082019050610a08600083018761095e565b610a15602083018661095e565b610a22604083018561096d565b610a2f60608301846109e4565b95945050505050565b6000602082019050610a4d600083018461096d565b92915050565b610a5c8161094c565b8114610a6757600080fd5b50565b600081359050610a7981610a53565b92915050565b600060208284031215610a9557610a946108c4565b5b6000610aa384828501610a6a565b91505092915050565b600082825260208201905092915050565b7f4e6f7420616c6c6f776564000000000000000000000000000000000000000000600082015250565b6000610af3600b83610aac565b9150610afe82610abd565b602082019050919050565b60006020820190508181036000830152610b2281610ae6565b9050919050565b7f4e6f742066756e64656400000000000000000000000000000000000000000000600082015250565b6000610b5f600a83610aac565b9150610b6a82610b29565b602082019050919050565b60006020820190508181036000830152610b8e81610b52565b9050919050565b600081905092915050565b50565b6000610bb0600083610b95565b9150610bbb82610ba0565b600082019050919050565b6000610bd182610ba3565b9150819050919050565b7f5472616e73666572206661696c65640000000000000000000000000000000000600082015250565b6000610c11600f83610aac565b9150610c1c82610bdb565b602082019050919050565b60006020820190508181036000830152610c4081610c04565b9050919050565b7f4f6e6c7920636c69656e74000000000000000000000000000000000000000000600082015250565b6000610c7d600b83610aac565b9150610c8882610c47565b602082019050919050565b60006020820190508181036000830152610cac81610c70565b9050919050565b7f4e6f2066756e6473000000000000000000000000000000000000000000000000600082015250565b6000610ce9600883610aac565b9150610cf482610cb3565b602082019050919050565b60006020820190508181036000830152610d1881610cdc565b9050919050565b7f4e487b7100000000000000000000000000000000000000000000000000000000600052601160045260246000fd5b6000610d59826108c9565b91507fffffffffffffffffffffffffffffffffffffffffffffffffffffffffffffffff8203610d8b57610d8a610d1f565b5b60018201905091905056fea264697066735822122027bd6506bf345c5b34f5c49a84cbbc3df900d99240ed3821e1a8920fd4b4a27964736f6c63430008180033",
  "linkReferences": {},
  "deployedLinkReferences": {}
}