{
  "_format": "hh-sol-artifact-1",
  "contractName": "Reputation",
  "sourceName": "contracts/Reputation.sol",
  "abi": [
    {
      "anonymous": false,
      "inputs": [
        {
          "indexed": true,
          "internalType": "address",
          "name": "from",
          "type": "address"
        },
        {
          "indexed": true,
          "internalType": "address",
          "name": "to",
          "type": "address"
        },
        {
          "indexed": false,
          "internalType": "uint8",
          "name": "score",
          "type": "uint8"
        },
        {
          "indexed": false,
          "internalType": "string",
          "name": "comment",
          "type": "string"
        }
      ],
      "name": "RatingGiven",
      "type": "event"
    },
    {
      "inputs": [
        {
          "internalType": "address",
          "name": "to",
          "type": "address"
        },
        {
          "internalType": "uint8",
          "name": "score",
          "type": "uint8"
        },
        {
          "internalType": "string",
          "name": "comment",
          "type": "string"
        }
      ],
      "name": "rate",
      "outputs": [],
      "stateMutability": "nonpayable",
      "type": "function"
    }
  ],
  "bytecode": "0x608060405234801561001057600080fd5b506103cd806100206000396000f3fe608060405234801561001057600080fd5b506004361061002b5760003560e01c8063c14d400c14610030575b600080fd5b61004a60048036038101906100459190610218565b61004c565b005b60018360ff1610158015610064575060058360ff1611155b6100a3576040517f08c379a000000000000000000000000000000000000000000000000000000000815260040161009a906102e9565b60405180910390fd5b8373ffffffffffffffffffffffffffffffffffffffff163373ffffffffffffffffffffffffffffffffffffffff167f2ac5db354272b5c55b1ed3e92effb42071337a90668fbf7b439462f308de8baf85858560405161010493929190610365565b60405180910390a350505050565b600080fd5b600080fd5b600073ffffffffffffffffffffffffffffffffffffffff82169050919050565b60006101478261011c565b9050919050565b6101578161013c565b811461016257600080fd5b50565b6000813590506101748161014e565b92915050565b600060ff82169050919050565b6101908161017a565b811461019b57600080fd5b50565b6000813590506101ad81610187565b92915050565b600080fd5b600080fd5b600080fd5b60008083601f8401126101d8576101d76101b3565b5b8235905067ffffffffffffffff8111156101f5576101f46101b8565b5b602083019150836001820283011115610211576102106101bd565b5b9250929050565b6000806000806060858703121561023257610231610112565b5b600061024087828801610165565b94505060206102518782880161019e565b935050604085013567ffffffffffffffff81111561027257610271610117565b5b61027e878288016101c2565b925092505092959194509250565b600082825260208201905092915050565b7f312d350000000000000000000000000000000000000000000000000000000000600082015250565b60006102d360038361028c565b91506102de8261029d565b602082019050919050565b60006020820190508181036000830152610302816102c6565b9050919050565b6103128161017a565b82525050565b82818337600083830152505050565b6000601f19601f8301169050919050565b6000610344838561028c565b9350610351838584610318565b61035a83610327565b840190509392505050565b600060408201905061037a6000830186610309565b818103602083015261038d818486610338565b905094935050505056fea2646970667358221220aed6e453bab9aae6b9856b1ccaa28b53f3f8459a9d5d5d57dae2399d1c5fa25864736f6c63430008180033",
  "linkReferences": {},
  "deployedLinkReferences": {}
}